:020000040000FA
:1000000007309F0083160510851485150516851683
:100010008601E0309F008312A3010530A200E02199
:10002000831605309B001C141A088312C100410876
:10003000A700831600309B001C141A088312A4002A
:100040002418C820A418A6202419B7204108A70006
:10005000831602309B001C141A089F00831283161B
:1000600003309B001C141A088312B4000830FC21D2
:1000700004308A003408002402220A30FC210430B3
:100080008A003408142402224108A7006C210030A1
:10009000FC214D3002220130FC213A300222403056
:1000A000FC21463002224130FC213A300222483005
:1000B000FC21483002224930FC217A3002220630ED
:1000C000FC21413002220730FC213A300222093063
:1000D000FC212E3002220B30FC21563002220C3043
:1000E000FC21703002220D30FC21703002224D3094
:1000F000FC21473002224E30FC21323002224F30A8
:10010000FC21363002222418F920A418ED202419ED
:10011000E1208328A301851C8E289028851D9F201F
:10012000851C0521851D3621851EB021051E6721F0
:100130002418F928A418ED282419E1280800D92149
:100140002418A628A418B7282419C8282410241174
:10015000A4140230FC21543002220330FC2152301E
:1001600002220430FC21473002228A21D92824109F
:10017000A41024150230FC21533002220330FC214C
:10018000493002220430FC214E3002228A21D92833
:10019000A410241124140230FC2153300222033015
:1001A000FC21513002220430FC21523002226C2109
:1001B000D928240883169A0000309B008312B721A7
:1001C0000800FC30230203198A2007308A00230824
:1001D00000278600A30AC2210800FC30230203196D
:1001E0008A2006308A00230800268600A30AC2213E
:1001F0000800FC30230203198A20A30AFF3086007E
:10020000D02100308600D0210800D9218316EF309C
:100210001F0203190E299F0AE0309F041F08203C8B
:10022000003CA0002012A0122013A013200883126B
:10023000B4000830FC2104308A0034080024022273
:100240000A30FC2104308A00340814240222831668
:100250001F089A0002309B008312B72134088316CE
:100260009A0003309B008312B7210800D92183161E
:10027000E0301F0203193F299F03E0309F041F084D
:10028000203C003CA0002012A0122013A013200844
:100290008312B4000830FC2104308A0034080024A2
:1002A00002220A30FC2104308A003408142402227D
:1002B00083161F089A0002309B008312B72134086E
:1002C00083169A0003309B008312B7210800D921BE
:1002D00016302702031DA70A241C8A2904308A002D
:1002E00027083024B5004330FC212E30022247304D
:1002F000FC216B3002224230FC2104308A002708A6
:100300004E2402224430FC2104308A0027086C2449
:100310000222A82904308A0027088A24B600423025
:10032000FC2104308A002708A82402224330FC2143
:1003300004308A002708C62402224430FC210430FD
:100340008A002708E22402224730FC2120300222C2
:10035000270883169A0005309B008312B7210800F6
:10036000D92101302702031DA7036C210800831641
:100370001C1555309D00AA309D009C149C18BE2968
:100380001C1183123608A500A50BC42908004808D3
:10039000A8000530A900A90BCB29A80BCB29080080
:1003A0000630A6003508A500A50BD429A60BD22936
:1003B00008000A30A200C721A20BDB292C2208006A
:1003C00027220612051006148614061186111E2215
:1003D000043027221E22372237221E2206101E2218
:1003E000283002220C300222063002221030022273
:1003F0000130022206160800061280380222061674
:100400002C220800B3000610861006118611B31BBB
:100410008615331B0615B31A8614331A06141E22CA
:100420000610861006118611B319861533190615A4
:10043000B3188614331806141E2208000514000091
:1004400000000000000005102C222C220800B00043
:100450002C22B00B282A0800E630B1000430B2008C
:10046000B10B332AB20B302A352A00000800413084
:08047000B100B10B392A0800AC
:10080000820730343034313431343234323433349A
:100810003334343434343534353436343634373490
:020820004D3455
:0808280082073034353430340E
:100830003534303435343034353430343534303484
:0A0840003534303435343034583488
:1008600082070A340A340B340C340D340E340F343E
:100870001034113412341334153417341A341D342F
:10088000203425342C34353443345A348834FF34FE
:04089C0082070A3491
:1008A00042344134393439343834383437343734D5
:1008B00036343634363435343534343434343334F1
:0C08C000333432343234313431343034CB
:0808D80082070A34353435347F
:1008E00038343134363431343634323439343534C2
:1008F00030343534303435343034353430343534C4
:08090000303435343034353455
:0C0914008207013401340234043405343D
:1009200006340734083409340A340B340C340D34DB
:100930000E341034133417341B3422342A34383430
:040940004E3460349D
:1009500082070A3442344134393438343834373435
:10096000373436343634363435343534353435343A
:100970003434343433343334323432343134313443
:04098C0082070A34A0
:100990003634373432343634303436343234383412
:1009A0003534323439343734343430343534303407
:0C09B000353430343534303435343234D2
:0C09C40082070A343534303430343034CB
:1009D00030343034303430343034303430343034F7
:1009E00030343034303430343034303430343034E7
:0409F0003034353436
:100A000082070034FF340034FF340034FF340034F4
:100A1000FF340034FF340034FF340034FF3400343A
:0A0A2000FF340034FF340034FF34CB
:100C000082070034043408340C341034143418349B
:100C10001C342034243428342C34303434343834E4
:100C20003C344034443448344C34503455345934D2
:100C30005D346134653469346D34713475347934BC
:100C40007D348134853489348D34913495349934AC
:100C50009D34A134A534AA34AE34B234B634BA3497
:100C6000BE34C234C634CA34CE34D234D634DA3484
:100C7000DE34E234E634EA34EE34F234F634FA3474
:100C8000FF34FB34F734F334EF34EB34E734E3343C
:100C9000DF34DB34D734D334CF34CB34C734C3342C
:100CA000BF34BB34B734B334AF34AA34A634A2341F
:100CB0009E349A34963492348E348A348634823414
:100CC0007E347A34763472346E346A346634623404
:100CD0005E345A34553451344D34493445344134FA
:100CE0003D343934353431342D34293425342134EC
:100CF0001D341934153411340D34093405340034DD
:100D0000043408340C341034143418341C342034B3
:100D1000243428342C343034343438343C344034A3
:100D2000443448344C345034553459345D3461348F
:100D3000653469346D347134753479347D3481347B
:100D4000853489348D349134953499349D34A1346B
:100D5000A534AA34AE34B234B634BA34BE34C23454
:100D6000C634CA34CE34D234D634DA34DE34E23443
:100D7000E634EA34EE34F234F634FA34FF34FB3439
:100D8000F734F334EF34EB34E734E334DF34DB347B
:100D9000D734D334CF34CB34C734C334BF34BB346B
:100DA000B734B334AF34AA34A634A2349E349A3460
:100DB000963492348E348A34863482347E347A3453
:100DC000763472346E346A34663462345E345A3443
:100DD000553451344D344934453441343D3439343B
:100DE000353431342D342934253421341D3419342B
:0A0DF000153411340D3409340534B4
:100E00008207803486348D34933499349F34A534EA
:100E1000AB34B134B734BD34C234C834CD34D23439
:100E2000D634DB34DF34E334E734EB34EE34F134FE
:100E3000F434F634F834FA34FC34FD34FE34FF3440
:100E4000FF34FF34FF34FE34FD34FC34FA34F8341C
:100E5000F634F434F134EE34EB34E734E334DF3495
:100E6000DB34D634D234CD34C834C234BD34B73494
:100E7000B134AB34A5349F34993493348D348634F3
:100E800080347A3473346D34673461345B34553470
:100E90004F34493443343E34383433342E342A34D6
:100EA000253421341D341934153412340F340C34E4
:100EB0000A3408340634043403340234013401346F
:100EC00001340134023403340434063408340A345F
:100ED0000C340F341234153419341D3421342534B4
:100EE0002A342E34333439343E34433449344F3485
:100EF00055345B34613467346D3473347A34803400
:100F000086348D34933499349F34A634AC34B13460
:100F1000B734BD34C234C834CD34D234D634DB34E3
:100F2000DF34E334E734EB34EE34F134F434F634C4
:100F3000F834FA34FC34FD34FE34FF34FF34FF342B
:100F4000FF34FE34FD34FC34FA34F834F634F4342F
:100F5000F134EE34EB34E734E334DF34DB34D634CD
:100F6000D234CD34C734C234BD34B734B134AB34E9
:100F7000A5349F34993493348C34863480347A3455
:100F800073346D34673461345A3454344F344934D3
:100F900043343E34383433342E3429342534213428
:100FA0001D341934153412340F340C340A34083417
:100FB000063404340334023401340134013401347E
:100FC000023403340434063408340A340C340F3445
:100FD0001234153419341D34213425342A342F3475
:100FE000333439343E34433449344F3455345B342C
:0A0FF000613467346D3474347A34D0
:02400E000A3F67
:00000001FF
